:030000000208EE05
:0C08EE00787FE4F6D8FD75810A0208004E
:100800007F387E001208FA7F0E7E001208FA7F0100
:100810007E001208FA758906D2B4E4F58CF58AD206
:100820008C208D377F807E001208FAAF8A75080011
:100830008F09AE087C007D0A1208618F0AEF12084A
:10084000DCAE08AF097C007D0A1208618D0AE50A5A
:100850001208DCE5096464450870C6C28DC28C804C
:01086000B9DE
:0C08FA008F90C2A1C2A01208B6C2A222B8
:0608DC002430FFE433FEAE
:0C08E2008F90C2A1D2A01208B6C2A222C0
:0608B600D2A27F0A7E00C1
:1008BC00E4FDFCC3ED9FEC9E5015E4FBFA0BBB0072
:0F08CC00010AEB64714A70F50DBD00010C80E468
:0108DB0022FA
:10086100BC000BBE0029EF8DF084FFADF022E4CC7B
:10087100F875F008EF2FFFEE33FEEC33FCEE9DEC44
:10088100984005FCEE9DFE0FD5F0E9E4CEFD22ED8A
:10089100F8F5F0EE8420D21CFEADF075F008EF2FD4
:1008A100FFED33FD4007985006D5F0F222C398FDC5
:0508B1000FD5F0EA2262
:00000001FF
